{
  "_format": "hh-sol-artifact-1",
  "contractName": "NFTs",
  "sourceName": "contracts/NFTs.sol",
  "abi": [
    {
      "inputs": [],
      "stateMutability": "nonpayable",
      "type": "constructor"
    },
    {
      "anonymous": false,
      "inputs": [
        {
          "indexed": true,
          "internalType": "address",
          "name": "owner",
          "type": "address"
        },
        {
          "indexed": true,
          "internalType": "address",
          "name": "approved",
          "type": "address"
        },
        {
          "indexed": true,
          "internalType": "uint256",
          "name": "tokenId",
          "type": "uint256"
        }
      ],
      "name": "Approval",
      "type": "event"
    },
    {
      "anonymous": false,
      "inputs": [
        {
          "indexed": true,
          "internalType": "address",
          "name": "owner",
          "type": "address"
        },
        {
          "indexed": true,
          "internalType": "address",
          "name": "operator",
          "type": "address"
        },
        {
          "indexed": false,
          "internalType": "bool",
          "name": "approved",
          "type": "bool"
        }
      ],
      "name": "ApprovalForAll",
      "type": "event"
    },
    {
      "anonymous": false,
      "inputs": [
        {
          "indexed": true,
          "internalType": "address",
          "name": "from",
          "type": "address"
        },
        {
          "indexed": true,
          "internalType": "address",
          "name": "to",
          "type": "address"
        },
        {
          "indexed": true,
          "internalType": "uint256",
          "name": "tokenId",
          "type": "uint256"
        }
      ],
      "name": "Transfer",
      "type": "event"
    },
    {
      "inputs": [
        {
          "internalType": "address",
          "name": "to",
          "type": "address"
        },
        {
          "internalType": "uint256",
          "name": "tokenId",
          "type": "uint256"
        }
      ],
      "name": "approve",
      "outputs": [],
      "stateMutability": "nonpayable",
      "type": "function"
    },
    {
      "inputs": [
        {
          "internalType": "address",
          "name": "owner",
          "type": "address"
        }
      ],
      "name": "balanceOf",
      "outputs": [
        {
          "internalType": "uint256",
          "name": "",
          "type": "uint256"
        }
      ],
      "stateMutability": "view",
      "type": "function"
    },
    {
      "inputs": [
        {
          "internalType": "uint256",
          "name": "tokenId",
          "type": "uint256"
        }
      ],
      "name": "getApproved",
      "outputs": [
        {
          "internalType": "address",
          "name": "",
          "type": "address"
        }
      ],
      "stateMutability": "view",
      "type": "function"
    },
    {
      "inputs": [
        {
          "internalType": "address",
          "name": "owner",
          "type": "address"
        },
        {
          "internalType": "address",
          "name": "operator",
          "type": "address"
        }
      ],
      "name": "isApprovedForAll",
      "outputs": [
        {
          "internalType": "bool",
          "name": "",
          "type": "bool"
        }
      ],
      "stateMutability": "view",
      "type": "function"
    },
    {
      "inputs": [],
      "name": "minPrice",
      "outputs": [
        {
          "internalType": "uint256",
          "name": "",
          "type": "uint256"
        }
      ],
      "stateMutability": "view",
      "type": "function"
    },
    {
      "inputs": [
        {
          "internalType": "string",
          "name": "_url",
          "type": "string"
        }
      ],
      "name": "mint",
      "outputs": [],
      "stateMutability": "payable",
      "type": "function"
    },
    {
      "inputs": [],
      "name": "name",
      "outputs": [
        {
          "internalType": "string",
          "name": "",
          "type": "string"
        }
      ],
      "stateMutability": "view",
      "type": "function"
    },
    {
      "inputs": [
        {
          "internalType": "uint256",
          "name": "tokenId",
          "type": "uint256"
        }
      ],
      "name": "ownerOf",
      "outputs": [
        {
          "internalType": "address",
          "name": "",
          "type": "address"
        }
      ],
      "stateMutability": "view",
      "type": "function"
    },
    {
      "inputs": [
        {
          "internalType": "address",
          "name": "from",
          "type": "address"
        },
        {
          "internalType": "address",
          "name": "to",
          "type": "address"
        },
        {
          "internalType": "uint256",
          "name": "tokenId",
          "type": "uint256"
        }
      ],
      "name": "safeTransferFrom",
      "outputs": [],
      "stateMutability": "nonpayable",
      "type": "function"
    },
    {
      "inputs": [
        {
          "internalType": "address",
          "name": "from",
          "type": "address"
        },
        {
          "internalType": "address",
          "name": "to",
          "type": "address"
        },
        {
          "internalType": "uint256",
          "name": "tokenId",
          "type": "uint256"
        },
        {
          "internalType": "bytes",
          "name": "_data",
          "type": "bytes"
        }
      ],
      "name": "safeTransferFrom",
      "outputs": [],
      "stateMutability": "nonpayable",
      "type": "function"
    },
    {
      "inputs": [
        {
          "internalType": "address",
          "name": "operator",
          "type": "address"
        },
        {
          "internalType": "bool",
          "name": "approved",
          "type": "bool"
        }
      ],
      "name": "setApprovalForAll",
      "outputs": [],
      "stateMutability": "nonpayable",
      "type": "function"
    },
    {
      "inputs": [
        {
          "internalType": "bytes4",
          "name": "interfaceId",
          "type": "bytes4"
        }
      ],
      "name": "supportsInterface",
      "outputs": [
        {
          "internalType": "bool",
          "name": "",
          "type": "bool"
        }
      ],
      "stateMutability": "view",
      "type": "function"
    },
    {
      "inputs": [],
      "name": "symbol",
      "outputs": [
        {
          "internalType": "string",
          "name": "",
          "type": "string"
        }
      ],
      "stateMutability": "view",
      "type": "function"
    },
    {
      "inputs": [
        {
          "internalType": "uint256",
          "name": "index",
          "type": "uint256"
        }
      ],
      "name": "tokenByIndex",
      "outputs": [
        {
          "internalType": "uint256",
          "name": "",
          "type": "uint256"
        }
      ],
      "stateMutability": "view",
      "type": "function"
    },
    {
      "inputs": [
        {
          "internalType": "address",
          "name": "owner",
          "type": "address"
        },
        {
          "internalType": "uint256",
          "name": "index",
          "type": "uint256"
        }
      ],
      "name": "tokenOfOwnerByIndex",
      "outputs": [
        {
          "internalType": "uint256",
          "name": "",
          "type": "uint256"
        }
      ],
      "stateMutability": "view",
      "type": "function"
    },
    {
      "inputs": [
        {
          "internalType": "uint256",
          "name": "tokenId",
          "type": "uint256"
        }
      ],
      "name": "tokenURI",
      "outputs": [
        {
          "internalType": "string",
          "name": "",
          "type": "string"
        }
      ],
      "stateMutability": "view",
      "type": "function"
    },
    {
      "inputs": [],
      "name": "totalSupply",
      "outputs": [
        {
          "internalType": "uint256",
          "name": "",
          "type": "uint256"
        }
      ],
      "stateMutability": "view",
      "type": "function"
    },
    {
      "inputs": [
        {
          "internalType": "address",
          "name": "from",
          "type": "address"
        },
        {
          "internalType": "address",
          "name": "to",
          "type": "address"
        },
        {
          "internalType": "uint256",
          "name": "tokenId",
          "type": "uint256"
        }
      ],
      "name": "transferFrom",
      "outputs": [],
      "stateMutability": "nonpayable",
      "type": "function"
    }
  ],
  "bytecode": "0x60806040523480156200001157600080fd5b506040518060400160405280600481526020017f4e465473000000000000000000000000000000000000000000000000000000008152506040518060400160405280600381526020017f4e46540000000000000000000000000000000000000000000000000000000000815250816000908051906020019062000096929190620000b8565b508060019080519060200190620000af929190620000b8565b505050620001cd565b828054620000c69062000168565b90600052602060002090601f016020900481019282620000ea576000855562000136565b82601f106200010557805160ff191683800117855562000136565b8280016001018555821562000136579182015b828111156200013557825182559160200191906001019062000118565b5b50905062000145919062000149565b5090565b5b80821115620001645760008160009055506001016200014a565b5090565b600060028204905060018216806200018157607f821691505b602082108114156200019857620001976200019e565b5b50919050565b7f4e487b7100000000000000000000000000000000000000000000000000000000600052602260045260246000fd5b6133cd80620001dd6000396000f3fe6080604052600436106101095760003560e01c80636352211e11610095578063b88d4fde11610064578063b88d4fde146103a1578063c87b56dd146103ca578063d85d3d2714610407578063e45be8eb14610423578063e985e9c51461044e57610109565b80636352211e146102d357806370a082311461031057806395d89b411461034d578063a22cb4651461037857610109565b806318160ddd116100dc57806318160ddd146101dc57806323b872dd146102075780632f745c591461023057806342842e0e1461026d5780634f6ccce71461029657610109565b806301ffc9a71461010e57806306fdde031461014b578063081812fc14610176578063095ea7b3146101b3575b600080fd5b34801561011a57600080fd5b5061013560048036038101906101309190612414565b61048b565b6040516101429190612ce5565b60405180910390f35b34801561015757600080fd5b5061016061049d565b60405161016d9190612d00565b60405180910390f35b34801561018257600080fd5b5061019d600480360381019061019891906124a7565b61052f565b6040516101aa9190612c7e565b60405180910390f35b3480156101bf57600080fd5b506101da60048036038101906101d591906123d8565b6105b4565b005b3480156101e857600080fd5b506101f16106cc565b6040516101fe9190612f62565b60405180910390f35b34801561021357600080fd5b5061022e600480360381019061022991906122d2565b6106d9565b005b34801561023c57600080fd5b50610257600480360381019061025291906123d8565b610739565b6040516102649190612f62565b60405180910390f35b34801561027957600080fd5b50610294600480360381019061028f91906122d2565b6107de565b005b3480156102a257600080fd5b506102bd60048036038101906102b891906124a7565b6107fe565b6040516102ca9190612f62565b60405180910390f35b3480156102df57600080fd5b506102fa60048036038101906102f591906124a7565b610895565b6040516103079190612c7e565b60405180910390f35b34801561031c57600080fd5b506103376004803603810190610332919061226d565b610947565b6040516103449190612f62565b60405180910390f35b34801561035957600080fd5b506103626109ff565b60405161036f9190612d00565b60405180910390f35b34801561038457600080fd5b5061039f600480360381019061039a919061239c565b610a91565b005b3480156103ad57600080fd5b506103c860048036038101906103c39190612321565b610aa7565b005b3480156103d657600080fd5b506103f160048036038101906103ec91906124a7565b610b09565b6040516103fe9190612d00565b60405180910390f35b610421600480360381019061041c9190612466565b610b1b565b005b34801561042f57600080fd5b50610438610b3f565b6040516104459190612f62565b60405180910390f35b34801561045a57600080fd5b5061047560048036038101906104709190612296565b610b44565b6040516104829190612ce5565b60405180910390f35b600061049682610bd8565b9050919050565b6060600080546104ac906131c2565b80601f01602080910402602001604051908101604052809291908181526020018280546104d8906131c2565b80156105255780601f106104fa57610100808354040283529160200191610525565b820191906000526020600020905b81548152906001019060200180831161050857829003601f168201915b5050505050905090565b600061053a82610c52565b610579576040517f08c379a000000000000000000000000000000000000000000000000000000000815260040161057090612ea2565b60405180910390fd5b6004600083815260200190815260200160002060009054906101000a900473ffffffffffffffffffffffffffffffffffffffff169050919050565b60006105bf82610895565b90508073ffffffffffffffffffffffffffffffffffffffff168373ffffffffffffffffffffffffffffffffffffffff161415610630576040517f08c379a000000000000000000000000000000000000000000000000000000000815260040161062790612f02565b60405180910390fd5b8073ffffffffffffffffffffffffffffffffffffffff1661064f610cbe565b73ffffffffffffffffffffffffffffffffffffffff16148061067e575061067d81610678610cbe565b610b44565b5b6106bd576040517f08c379a00000000000000000000000000000000000000000000000000000000081526004016106b490612de2565b60405180910390fd5b6106c78383610cc6565b505050565b6000600880549050905090565b6106ea6106e4610cbe565b82610d7f565b610729576040517f08c379a000000000000000000000000000000000000000000000000000000000815260040161072090612f22565b60405180910390fd5b610734838383610e5d565b505050565b600061074483610947565b8210610785576040517f08c379a000000000000000000000000000000000000000000000000000000000815260040161077c90612d22565b60405180910390fd5b600660008473ffffffffffffffffffffffffffffffffffffffff1673ffffffffffffffffffffffffffffffffffffffff168152602001908152602001600020600083815260200190815260200160002054905092915050565b6107f983838360405180602001604052806000815250610aa7565b505050565b60006108086106cc565b8210610849576040517f08c379a000000000000000000000000000000000000000000000000000000000815260040161084090612f42565b60405180910390fd5b60088281548110610883577f4e487b7100000000000000000000000000000000000000000000000000000000600052603260045260246000fd5b90600052602060002001549050919050565b6000806002600084815260200190815260200160002060009054906101000a900473ffffffffffffffffffffffffffffffffffffffff169050600073ffffffffffffffffffffffffffffffffffffffff168173ffffffffffffffffffffffffffffffffffffffff16141561093e576040517f08c379a000000000000000000000000000000000000000000000000000000000815260040161093590612e22565b60405180910390fd5b80915050919050565b60008073ffffffffffffffffffffffffffffffffffffffff168273ffffffffffffffffffffffffffffffffffffffff1614156109b8576040517f08c379a00000000000000000000000000000000000000000000000000000000081526004016109af90612e02565b60405180910390fd5b600360008373ffffffffffffffffffffffffffffffffffffffff1673ffffffffffffffffffffffffffffffffffffffff168152602001908152602001600020549050919050565b606060018054610a0e906131c2565b80601f0160208091040260200160405190810160405280929190818152602001828054610a3a906131c2565b8015610a875780601f10610a5c57610100808354040283529160200191610a87565b820191906000526020600020905b815481529060010190602001808311610a6a57829003601f168201915b5050505050905090565b610aa3610a9c610cbe565b83836110b9565b5050565b610ab8610ab2610cbe565b83610d7f565b610af7576040517f08c379a0000000000000000000000000000000000000000000000000000000008152600401610aee90612f22565b60405180910390fd5b610b0384848484611226565b50505050565b6060610b1482611282565b9050919050565b6000610b256106cc565b9050610b3133826113d4565b610b3b81836113f2565b5050565b600081565b6000600560008473ffffffffffffffffffffffffffffffffffffffff1673ffffffffffffffffffffffffffffffffffffffff16815260200190815260200160002060008373ffffffffffffffffffffffffffffffffffffffff1673ffffffffffffffffffffffffffffffffffffffff16815260200190815260200160002060009054906101000a900460ff16905092915050565b60007f780e9d63000000000000000000000000000000000000000000000000000000007bffffffffffffffffffffffffffffffffffffffffffffffffffffffff1916827bffffffffffffffffffffffffffffffffffffffffffffffffffffffff19161480610c4b5750610c4a82611466565b5b9050919050565b60008073ffffffffffffffffffffffffffffffffffffffff166002600084815260200190815260200160002060009054906101000a900473ffffffffffffffffffffffffffffffffffffffff1673ffffffffffffffffffffffffffffffffffffffff1614159050919050565b600033905090565b816004600083815260200190815260200160002060006101000a81548173ffffffffffffffffffffffffffffffffffffffff021916908373ffffffffffffffffffffffffffffffffffffffff160217905550808273ffffffffffffffffffffffffffffffffffffffff16610d3983610895565b73ffffffffffffffffffffffffffffffffffffffff167f8c5be1e5ebec7d5bd14f71427d1e84f3dd0314c0f7b2291e5b200ac8c7c3b92560405160405180910390a45050565b6000610d8a82610c52565b610dc9576040517f08c379a0000000000000000000000000000000000000000000000000000000008152600401610dc090612dc2565b60405180910390fd5b6000610dd483610895565b90508073ffffffffffffffffffffffffffffffffffffffff168473ffffffffffffffffffffffffffffffffffffffff161480610e4357508373ffffffffffffffffffffffffffffffffffffffff16610e2b8461052f565b73ffffffffffffffffffffffffffffffffffffffff16145b80610e545750610e538185610b44565b5b91505092915050565b8273ffffffffffffffffffffffffffffffffffffffff16610e7d82610895565b73ffffffffffffffffffffffffffffffffffffffff1614610ed3576040517f08c379a0000000000000000000000000000000000000000000000000000000008152600401610eca90612ec2565b60405180910390fd5b600073ffffffffffffffffffffffffffffffffffffffff168273ffffffffffffffffffffffffffffffffffffffff161415610f43576040517f08c379a0000000000000000000000000000000000000000000000000000000008152600401610f3a90612d82565b60405180910390fd5b610f4e838383611548565b610f59600082610cc6565b6001600360008573ffffffffffffffffffffffffffffffffffffffff1673ffffffffffffffffffffffffffffffffffffffff1681526020019081526020016000206000828254610fa991906130d8565b925050819055506001600360008473ffffffffffffffffffffffffffffffffffffffff1673ffffffffffffffffffffffffffffffffffffffff16815260200190815260200160002060008282546110009190613051565b92505081905550816002600083815260200190815260200160002060006101000a81548173ffffffffffffffffffffffffffffffffffffffff021916908373ffffffffffffffffffffffffffffffffffffffff160217905550808273ffffffffffffffffffffffffffffffffffffffff168473ffffffffffffffffffffffffffffffffffffffff167fddf252ad1be2c89b69c2b068fc378daa952ba7f163c4a11628f55a4df523b3ef60405160405180910390a4505050565b8173ffffffffffffffffffffffffffffffffffffffff168373ffffffffffffffffffffffffffffffffffffffff161415611128576040517f08c379a000000000000000000000000000000000000000000000000000000000815260040161111f90612da2565b60405180910390fd5b80600560008573ffffffffffffffffffffffffffffffffffffffff1673ffffffffffffffffffffffffffffffffffffffff16815260200190815260200160002060008473ffffffffffffffffffffffffffffffffffffffff1673ffffffffffffffffffffffffffffffffffffffff16815260200190815260200160002060006101000a81548160ff0219169083151502179055508173ffffffffffffffffffffffffffffffffffffffff168373ffffffffffffffffffffffffffffffffffffffff167f17307eab39ab6107e8899845ad3d59bd9653f200f220920489ca2b5937696c31836040516112199190612ce5565b60405180910390a3505050565b611231848484610e5d565b61123d84848484611558565b61127c576040517f08c379a000000000000000000000000000000000000000000000000000000000815260040161127390612d42565b60405180910390fd5b50505050565b606061128d82610c52565b6112cc576040517f08c379a00000000000000000000000000000000000000000000000000000000081526004016112c390612e82565b60405180910390fd5b6000600a600084815260200190815260200160002080546112ec906131c2565b80601f0160208091040260200160405190810160405280929190818152602001828054611318906131c2565b80156113655780601f1061133a57610100808354040283529160200191611365565b820191906000526020600020905b81548152906001019060200180831161134857829003601f168201915b5050505050905060006113766116ef565b905060008151141561138c5781925050506113cf565b6000825111156113c15780826040516020016113a9929190612c5a565b604051602081830303815290604052925050506113cf565b6113ca84611706565b925050505b919050565b6113ee8282604051806020016040528060008152506117ad565b5050565b6113fb82610c52565b61143a576040517f08c379a000000000000000000000000000000000000000000000000000000000815260040161143190612e42565b60405180910390fd5b80600a60008481526020019081526020016000209080519060200190611461929190612091565b505050565b60007f80ac58cd000000000000000000000000000000000000000000000000000000007bffffffffffffffffffffffffffffffffffffffffffffffffffffffff1916827bffffffffffffffffffffffffffffffffffffffffffffffffffffffff1916148061153157507f5b5e139f000000000000000000000000000000000000000000000000000000007bffffffffffffffffffffffffffffffffffffffffffffffffffffffff1916827bffffffffffffffffffffffffffffffffffffffffffffffffffffffff1916145b80611541575061154082611808565b5b9050919050565b611553838383611872565b505050565b60006115798473ffffffffffffffffffffffffffffffffffffffff16611986565b156116e2578373ffffffffffffffffffffffffffffffffffffffff1663150b7a026115a2610cbe565b8786866040518563ffffffff1660e01b81526004016115c49493929190612c99565b602060405180830381600087803b1580156115de57600080fd5b505af192505050801561160f57506040513d601f19601f8201168201806040525081019061160c919061243d565b60015b611692573d806000811461163f576040519150601f19603f3d011682016040523d82523d6000602084013e611644565b606091505b5060008151141561168a576040517f08c379a000000000000000000000000000000000000000000000000000000000815260040161168190612d42565b60405180910390fd5b805181602001fd5b63150b7a0260e01b7bffffffffffffffffffffffffffffffffffffffffffffffffffffffff1916817bffffffffffffffffffffffffffffffffffffffffffffffffffffffff1916149150506116e7565b600190505b949350505050565b606060405180602001604052806000815250905090565b606061171182610c52565b611750576040517f08c379a000000000000000000000000000000000000000000000000000000000815260040161174790612ee2565b60405180910390fd5b600061175a6116ef565b9050600081511161177a57604051806020016040528060008152506117a5565b8061178484611999565b604051602001611795929190612c5a565b6040516020818303038152906040525b915050919050565b6117b78383611b46565b6117c46000848484611558565b611803576040517f08c379a00000000000000000000000000000000000000000000000000000000081526004016117fa90612d42565b60405180910390fd5b505050565b60007f01ffc9a7000000000000000000000000000000000000000000000000000000007bffffffffffffffffffffffffffffffffffffffffffffffffffffffff1916827bffffffffffffffffffffffffffffffffffffffffffffffffffffffff1916149050919050565b61187d838383611d14565b600073ffffffffffffffffffffffffffffffffffffffff168373ffffffffffffffffffffffffffffffffffffffff1614156118c0576118bb81611d19565b6118ff565b8173ffffffffffffffffffffffffffffffffffffffff168373ffffffffffffffffffffffffffffffffffffffff16146118fe576118fd8382611d62565b5b5b600073ffffffffffffffffffffffffffffffffffffffff168273ffffffffffffffffffffffffffffffffffffffff1614156119425761193d81611ecf565b611981565b8273ffffffffffffffffffffffffffffffffffffffff168273ffffffffffffffffffffffffffffffffffffffff16146119805761197f8282612012565b5b5b505050565b600080823b905060008111915050919050565b606060008214156119e1576040518060400160405280600181526020017f30000000000000000000000000000000000000000000000000000000000000008152509050611b41565b600082905060005b60008214611a135780806119fc906131f4565b915050600a82611a0c91906130a7565b91506119e9565b60008167ffffffffffffffff811115611a55577f4e487b7100000000000000000000000000000000000000000000000000000000600052604160045260246000fd5b6040519080825280601f01601f191660200182016040528015611a875781602001600182028036833780820191505090505b5090505b60008514611b3a57600182611aa091906130d8565b9150600a85611aaf919061323d565b6030611abb9190613051565b60f81b818381518110611af7577f4e487b7100000000000000000000000000000000000000000000000000000000600052603260045260246000fd5b60200101907effffffffffffffffffffffffffffffffffffffffffffffffffffffffffffff1916908160001a905350600a85611b3391906130a7565b9450611a8b565b8093505050505b919050565b600073ffffffffffffffffffffffffffffffffffffffff168273ffffffffffffffffffffffffffffffffffffffff161415611bb6576040517f08c379a0000000000000000000000000000000000000000000000000000000008152600401611bad90612e62565b60405180910390fd5b611bbf81610c52565b15611bff576040517f08c379a0000000000000000000000000000000000000000000000000000000008152600401611bf690612d62565b60405180910390fd5b611c0b60008383611548565b6001600360008473ffffffffffffffffffffffffffffffffffffffff1673ffffffffffffffffffffffffffffffffffffffff1681526020019081526020016000206000828254611c5b9190613051565b92505081905550816002600083815260200190815260200160002060006101000a81548173ffffffffffffffffffffffffffffffffffffffff021916908373ffffffffffffffffffffffffffffffffffffffff160217905550808273ffffffffffffffffffffffffffffffffffffffff16600073ffffffffffffffffffffffffffffffffffffffff167fddf252ad1be2c89b69c2b068fc378daa952ba7f163c4a11628f55a4df523b3ef60405160405180910390a45050565b505050565b6008805490506009600083815260200190815260200160002081905550600881908060018154018082558091505060019003906000526020600020016000909190919091505550565b60006001611d6f84610947565b611d7991906130d8565b9050600060076000848152602001908152602001600020549050818114611e5e576000600660008673ffffffffffffffffffffffffffffffffffffffff1673ffffffffffffffffffffffffffffffffffffffff168152602001908152602001600020600084815260200190815260200160002054905080600660008773ffffffffffffffffffffffffffffffffffffffff1673ffffffffffffffffffffffffffffffffffffffff168152602001908152602001600020600084815260200190815260200160002081905550816007600083815260200190815260200160002081905550505b6007600084815260200190815260200160002060009055600660008573ffffffffffffffffffffffffffffffffffffffff1673ffffffffffffffffffffffffffffffffffffffff16815260200190815260200160002060008381526020019081526020016000206000905550505050565b60006001600880549050611ee391906130d8565b9050600060096000848152602001908152602001600020549050600060088381548110611f39577f4e487b7100000000000000000000000000000000000000000000000000000000600052603260045260246000fd5b906000526020600020015490508060088381548110611f81577f4e487b7100000000000000000000000000000000000000000000000000000000600052603260045260246000fd5b906000526020600020018190555081600960008381526020019081526020016000208190555060096000858152602001908152602001600020600090556008805480611ff6577f4e487b7100000000000000000000000000000000000000000000000000000000600052603160045260246000fd5b6001900381819060005260206000200160009055905550505050565b600061201d83610947565b905081600660008573ffffffffffffffffffffffffffffffffffffffff1673ffffffffffffffffffffffffffffffffffffffff168152602001908152602001600020600083815260200190815260200160002081905550806007600084815260200190815260200160002081905550505050565b82805461209d906131c2565b90600052602060002090601f0160209004810192826120bf5760008555612106565b82601f106120d857805160ff1916838001178555612106565b82800160010185558215612106579182015b828111156121055782518255916020019190600101906120ea565b5b5090506121139190612117565b5090565b5b80821115612130576000816000905550600101612118565b5090565b600061214761214284612fae565b612f7d565b90508281526020810184848401111561215f57600080fd5b61216a848285613180565b509392505050565b600061218561218084612fde565b612f7d565b90508281526020810184848401111561219d57600080fd5b6121a8848285613180565b509392505050565b6000813590506121bf8161333b565b92915050565b6000813590506121d481613352565b92915050565b6000813590506121e981613369565b92915050565b6000815190506121fe81613369565b92915050565b600082601f83011261221557600080fd5b8135612225848260208601612134565b91505092915050565b600082601f83011261223f57600080fd5b813561224f848260208601612172565b91505092915050565b60008135905061226781613380565b92915050565b60006020828403121561227f57600080fd5b600061228d848285016121b0565b91505092915050565b600080604083850312156122a957600080fd5b60006122b7858286016121b0565b92505060206122c8858286016121b0565b9150509250929050565b6000806000606084860312156122e757600080fd5b60006122f5868287016121b0565b9350506020612306868287016121b0565b925050604061231786828701612258565b9150509250925092565b6000806000806080858703121561233757600080fd5b6000612345878288016121b0565b9450506020612356878288016121b0565b935050604061236787828801612258565b925050606085013567ffffffffffffffff81111561238457600080fd5b61239087828801612204565b91505092959194509250565b600080604083850312156123af57600080fd5b60006123bd858286016121b0565b92505060206123ce858286016121c5565b9150509250929050565b600080604083850312156123eb57600080fd5b60006123f9858286016121b0565b925050602061240a85828601612258565b9150509250929050565b60006020828403121561242657600080fd5b6000612434848285016121da565b91505092915050565b60006020828403121561244f57600080fd5b600061245d848285016121ef565b91505092915050565b60006020828403121561247857600080fd5b600082013567ffffffffffffffff81111561249257600080fd5b61249e8482850161222e565b91505092915050565b6000602082840312156124b957600080fd5b60006124c784828501612258565b91505092915050565b6124d98161310c565b82525050565b6124e88161311e565b82525050565b60006124f98261300e565b6125038185613024565b935061251381856020860161318f565b61251c8161332a565b840191505092915050565b600061253282613019565b61253c8185613035565b935061254c81856020860161318f565b6125558161332a565b840191505092915050565b600061256b82613019565b6125758185613046565b935061258581856020860161318f565b80840191505092915050565b600061259e602b83613035565b91507f455243373231456e756d657261626c653a206f776e657220696e646578206f7560008301527f74206f6620626f756e64730000000000000000000000000000000000000000006020830152604082019050919050565b6000612604603283613035565b91507f4552433732313a207472616e7366657220746f206e6f6e20455243373231526560008301527f63656976657220696d706c656d656e74657200000000000000000000000000006020830152604082019050919050565b600061266a601c83613035565b91507f4552433732313a20746f6b656e20616c7265616479206d696e746564000000006000830152602082019050919050565b60006126aa602483613035565b91507f4552433732313a207472616e7366657220746f20746865207a65726f2061646460008301527f72657373000000000000000000000000000000000000000000000000000000006020830152604082019050919050565b6000612710601983613035565b91507f4552433732313a20617070726f766520746f2063616c6c6572000000000000006000830152602082019050919050565b6000612750602c83613035565b91507f4552433732313a206f70657261746f7220717565727920666f72206e6f6e657860008301527f697374656e7420746f6b656e00000000000000000000000000000000000000006020830152604082019050919050565b60006127b6603883613035565b91507f4552433732313a20617070726f76652063616c6c6572206973206e6f74206f7760008301527f6e6572206e6f7220617070726f76656420666f7220616c6c00000000000000006020830152604082019050919050565b600061281c602a83613035565b91507f4552433732313a2062616c616e636520717565727920666f7220746865207a6560008301527f726f2061646472657373000000000000000000000000000000000000000000006020830152604082019050919050565b6000612882602983613035565b91507f4552433732313a206f776e657220717565727920666f72206e6f6e657869737460008301527f656e7420746f6b656e00000000000000000000000000000000000000000000006020830152604082019050919050565b60006128e8602e83613035565b91507f45524337323155524953746f726167653a2055524920736574206f66206e6f6e60008301527f6578697374656e7420746f6b656e0000000000000000000000000000000000006020830152604082019050919050565b600061294e602083613035565b91507f4552433732313a206d696e7420746f20746865207a65726f20616464726573736000830152602082019050919050565b600061298e603183613035565b91507f45524337323155524953746f726167653a2055524920717565727920666f722060008301527f6e6f6e6578697374656e7420746f6b656e0000000000000000000000000000006020830152604082019050919050565b60006129f4602c83613035565b91507f4552433732313a20617070726f76656420717565727920666f72206e6f6e657860008301527f697374656e7420746f6b656e00000000000000000000000000000000000000006020830152604082019050919050565b6000612a5a602983613035565b91507f4552433732313a207472616e73666572206f6620746f6b656e2074686174206960008301527f73206e6f74206f776e00000000000000000000000000000000000000000000006020830152604082019050919050565b6000612ac0602f83613035565b91507f4552433732314d657461646174613a2055524920717565727920666f72206e6f60008301527f6e6578697374656e7420746f6b656e00000000000000000000000000000000006020830152604082019050919050565b6000612b26602183613035565b91507f4552433732313a20617070726f76616c20746f2063757272656e74206f776e6560008301527f72000000000000000000000000000000000000000000000000000000000000006020830152604082019050919050565b6000612b8c603183613035565b91507f4552433732313a207472616e736665722063616c6c6572206973206e6f74206f60008301527f776e6572206e6f7220617070726f7665640000000000000000000000000000006020830152604082019050919050565b6000612bf2602c83613035565b91507f455243373231456e756d657261626c653a20676c6f62616c20696e646578206f60008301527f7574206f6620626f756e647300000000000000000000000000000000000000006020830152604082019050919050565b612c5481613176565b82525050565b6000612c668285612560565b9150612c728284612560565b91508190509392505050565b6000602082019050612c9360008301846124d0565b92915050565b6000608082019050612cae60008301876124d0565b612cbb60208301866124d0565b612cc86040830185612c4b565b8181036060830152612cda81846124ee565b905095945050505050565b6000602082019050612cfa60008301846124df565b92915050565b60006020820190508181036000830152612d1a8184612527565b905092915050565b60006020820190508181036000830152612d3b81612591565b9050919050565b60006020820190508181036000830152612d5b816125f7565b9050919050565b60006020820190508181036000830152612d7b8161265d565b9050919050565b60006020820190508181036000830152612d9b8161269d565b9050919050565b60006020820190508181036000830152612dbb81612703565b9050919050565b60006020820190508181036000830152612ddb81612743565b9050919050565b60006020820190508181036000830152612dfb816127a9565b9050919050565b60006020820190508181036000830152612e1b8161280f565b9050919050565b60006020820190508181036000830152612e3b81612875565b9050919050565b60006020820190508181036000830152612e5b816128db565b9050919050565b60006020820190508181036000830152612e7b81612941565b9050919050565b60006020820190508181036000830152612e9b81612981565b9050919050565b60006020820190508181036000830152612ebb816129e7565b9050919050565b60006020820190508181036000830152612edb81612a4d565b9050919050565b60006020820190508181036000830152612efb81612ab3565b9050919050565b60006020820190508181036000830152612f1b81612b19565b9050919050565b60006020820190508181036000830152612f3b81612b7f565b9050919050565b60006020820190508181036000830152612f5b81612be5565b9050919050565b6000602082019050612f776000830184612c4b565b92915050565b6000604051905081810181811067ffffffffffffffff82111715612fa457612fa36132fb565b5b8060405250919050565b600067ffffffffffffffff821115612fc957612fc86132fb565b5b601f19601f8301169050602081019050919050565b600067ffffffffffffffff821115612ff957612ff86132fb565b5b601f19601f8301169050602081019050919050565b600081519050919050565b600081519050919050565b600082825260208201905092915050565b600082825260208201905092915050565b600081905092915050565b600061305c82613176565b915061306783613176565b9250827fffffffffffffffffffffffffffffffffffffffffffffffffffffffffffffffff0382111561309c5761309b61326e565b5b828201905092915050565b60006130b282613176565b91506130bd83613176565b9250826130cd576130cc61329d565b5b828204905092915050565b60006130e382613176565b91506130ee83613176565b9250828210156131015761310061326e565b5b828203905092915050565b600061311782613156565b9050919050565b60008115159050919050565b60007fffffffff0000000000000000000000000000000000000000000000000000000082169050919050565b600073ffffffffffffffffffffffffffffffffffffffff82169050919050565b6000819050919050565b82818337600083830152505050565b60005b838110156131ad578082015181840152602081019050613192565b838111156131bc576000848401525b50505050565b600060028204905060018216806131da57607f821691505b602082108114156131ee576131ed6132cc565b5b50919050565b60006131ff82613176565b91507fffffffffffffffffffffffffffffffffffffffffffffffffffffffffffffffff8214156132325761323161326e565b5b600182019050919050565b600061324882613176565b915061325383613176565b9250826132635761326261329d565b5b828206905092915050565b7f4e487b7100000000000000000000000000000000000000000000000000000000600052601160045260246000fd5b7f4e487b7100000000000000000000000000000000000000000000000000000000600052601260045260246000fd5b7f4e487b7100000000000000000000000000000000000000000000000000000000600052602260045260246000fd5b7f4e487b7100000000000000000000000000000000000000000000000000000000600052604160045260246000fd5b6000601f19601f8301169050919050565b6133448161310c565b811461334f57600080fd5b50565b61335b8161311e565b811461336657600080fd5b50565b6133728161312a565b811461337d57600080fd5b50565b61338981613176565b811461339457600080fd5b5056fea264697066735822122057df2e75ef5fab41480465a14a344ab032e702880ba535342feb8032ae18e15c64736f6c63430008000033",
  "linkReferences": {},
  "deployedLinkReferences": {}
}